{"abi":[{"type":"constructor","inputs":[{"name":"_name","type":"string","internalType":"string"},{"name":"_symbol","type":"string","internalType":"string"},{"name":"_uri","type":"string","internalType":"string"}],"stateMutability":"nonpayable"},{"type":"function","name":"ID","inputs":[],"outputs":[{"name":"","type":"uint256","internalType":"uint256"}],"stateMutability":"view"},{"type":"function","name":"balanceOf","inputs":[{"name":"account","type":"address","internalType":"address"},{"name":"id","type":"uint256","internalType":"uint256"}],"outputs":[{"name":"","type":"uint256","internalType":"uint256"}],"stateMutability":"view"},{"type":"function","name":"balanceOfBatch","inputs":[{"name":"accounts","type":"address[]","internalType":"address[]"},{"name":"ids","type":"uint256[]","internalType":"uint256[]"}],"outputs":[{"name":"","type":"uint256[]","internalType":"uint256[]"}],"stateMutability":"view"},{"type":"function","name":"claimTestnetBera","inputs":[],"outputs":[],"stateMutability":"payable"},{"type":"function","name":"hasMinted","inputs":[{"name":"","type":"address","internalType":"address"}],"outputs":[{"name":"","type":"bool","internalType":"bool"}],"stateMutability":"view"},{"type":"function","name":"isApprovedForAll","inputs":[{"name":"account","type":"address","internalType":"address"},{"name":"operator","type":"address","internalType":"address"}],"outputs":[{"name":"","type":"bool","internalType":"bool"}],"stateMutability":"view"},{"type":"function","name":"name","inputs":[],"outputs":[{"name":"","type":"string","internalType":"string"}],"stateMutability":"view"},{"type":"function","name":"onERC1155BatchReceived","inputs":[{"name":"","type":"address","internalType":"address"},{"name":"","type":"address","internalType":"address"},{"name":"","type":"uint256[]","internalType":"uint256[]"},{"name":"","type":"uint256[]","internalType":"uint256[]"},{"name":"","type":"bytes","internalType":"bytes"}],"outputs":[{"name":"","type":"bytes4","internalType":"bytes4"}],"stateMutability":"pure"},{"type":"function","name":"onERC1155Received","inputs":[{"name":"operator","type":"address","internalType":"address"},{"name":"from","type":"address","internalType":"address"},{"name":"id","type":"uint256","internalType":"uint256"},{"name":"value","type":"uint256","internalType":"uint256"},{"name":"data","type":"bytes","internalType":"bytes"}],"outputs":[{"name":"","type":"bytes4","internalType":"bytes4"}],"stateMutability":"nonpayable"},{"type":"function","name":"owner","inputs":[],"outputs":[{"name":"","type":"address","internalType":"address"}],"stateMutability":"view"},{"type":"function","name":"renounceOwnership","inputs":[],"outputs":[],"stateMutability":"nonpayable"},{"type":"function","name":"safeBatchTransferFrom","inputs":[{"name":"from","type":"address","internalType":"address"},{"name":"to","type":"address","internalType":"address"},{"name":"ids","type":"uint256[]","internalType":"uint256[]"},{"name":"values","type":"uint256[]","internalType":"uint256[]"},{"name":"data","type":"bytes","internalType":"bytes"}],"outputs":[],"stateMutability":"nonpayable"},{"type":"function","name":"safeTransferFrom","inputs":[{"name":"from","type":"address","internalType":"address"},{"name":"to","type":"address","internalType":"address"},{"name":"id","type":"uint256","internalType":"uint256"},{"name":"value","type":"uint256","internalType":"uint256"},{"name":"data","type":"bytes","internalType":"bytes"}],"outputs":[],"stateMutability":"nonpayable"},{"type":"function","name":"setApprovalForAll","inputs":[{"name":"operator","type":"address","internalType":"address"},{"name":"approved","type":"bool","internalType":"bool"}],"outputs":[],"stateMutability":"nonpayable"},{"type":"function","name":"setURI","inputs":[{"name":"newuri","type":"string","internalType":"string"}],"outputs":[],"stateMutability":"nonpayable"},{"type":"function","name":"supportsInterface","inputs":[{"name":"interfaceId","type":"bytes4","internalType":"bytes4"}],"outputs":[{"name":"","type":"bool","internalType":"bool"}],"stateMutability":"view"},{"type":"function","name":"symbol","inputs":[],"outputs":[{"name":"","type":"string","internalType":"string"}],"stateMutability":"view"},{"type":"function","name":"totalSupply","inputs":[],"outputs":[{"name":"","type":"uint256","internalType":"uint256"}],"stateMutability":"view"},{"type":"function","name":"transferOwnership","inputs":[{"name":"newOwner","type":"address","internalType":"address"}],"outputs":[],"stateMutability":"nonpayable"},{"type":"function","name":"uri","inputs":[{"name":"_id","type":"uint256","internalType":"uint256"}],"outputs":[{"name":"","type":"string","internalType":"string"}],"stateMutability":"view"},{"type":"function","name":"withdraw","inputs":[],"outputs":[],"stateMutability":"nonpayable"},{"type":"event","name":"ApprovalForAll","inputs":[{"name":"account","type":"address","indexed":true,"internalType":"address"},{"name":"operator","type":"address","indexed":true,"internalType":"address"},{"name":"approved","type":"bool","indexed":false,"internalType":"bool"}],"anonymous":false},{"type":"event","name":"OwnershipTransferred","inputs":[{"name":"previousOwner","type":"address","indexed":true,"internalType":"address"},{"name":"newOwner","type":"address","indexed":true,"internalType":"address"}],"anonymous":false},{"type":"event","name":"TransferBatch","inputs":[{"name":"operator","type":"address","indexed":true,"internalType":"address"},{"name":"from","type":"address","indexed":true,"internalType":"address"},{"name":"to","type":"address","indexed":true,"internalType":"address"},{"name":"ids","type":"uint256[]","indexed":false,"internalType":"uint256[]"},{"name":"values","type":"uint256[]","indexed":false,"internalType":"uint256[]"}],"anonymous":false},{"type":"event","name":"TransferSingle","inputs":[{"name":"operator","type":"address","indexed":true,"internalType":"address"},{"name":"from","type":"address","indexed":true,"internalType":"address"},{"name":"to","type":"address","indexed":true,"internalType":"address"},{"name":"id","type":"uint256","indexed":false,"internalType":"uint256"},{"name":"value","type":"uint256","indexed":false,"internalType":"uint256"}],"anonymous":false},{"type":"event","name":"URI","inputs":[{"name":"value","type":"string","indexed":false,"internalType":"string"},{"name":"id","type":"uint256","indexed":true,"internalType":"uint256"}],"anonymous":false},{"type":"error","name":"AlreadyMinted","inputs":[]},{"type":"error","name":"ERC1155InsufficientBalance","inputs":[{"name":"sender","type":"address","internalType":"address"},{"name":"balance","type":"uint256","internalType":"uint256"},{"name":"needed","type":"uint256","internalType":"uint256"},{"name":"tokenId","type":"uint256","internalType":"uint256"}]},{"type":"error","name":"ERC1155InvalidApprover","inputs":[{"name":"approver","type":"address","internalType":"address"}]},{"type":"error","name":"ERC1155InvalidArrayLength","inputs":[{"name":"idsLength","type":"uint256","internalType":"uint256"},{"name":"valuesLength","type":"uint256","internalType":"uint256"}]},{"type":"error","name":"ERC1155InvalidOperator","inputs":[{"name":"operator","type":"address","internalType":"address"}]},{"type":"error","name":"ERC1155InvalidReceiver","inputs":[{"name":"receiver","type":"address","internalType":"address"}]},{"type":"error","name":"ERC1155InvalidSender","inputs":[{"name":"sender","type":"address","internalType":"address"}]},{"type":"error","name":"ERC1155MissingApprovalForAll","inputs":[{"name":"operator","type":"address","internalType":"address"},{"name":"owner","type":"address","internalType":"address"}]},{"type":"error","name":"InvalidTokenId","inputs":[]},{"type":"error","name":"OwnableInvalidOwner","inputs":[{"name":"owner","type":"address","internalType":"address"}]},{"type":"error","name":"OwnableUnauthorizedAccount","inputs":[{"name":"account","type":"address","internalType":"address"}]},{"type":"error","name":"ReentrancyGuardReentrantCall","inputs":[]},{"type":"error","name":"ZeroAddress","inputs":[]},{"type":"error","name":"notTokenOwner","inputs":[]}],"bytecode":{"object":"0x608060405260006007553480156200001657600080fd5b5060405162001d3138038062001d318339810160408190526200003991620001cf565b8033806200006157604051631e4fbdf760e01b81526000600482015260240160405180910390fd5b6200006c81620000a5565b506200007881620000f5565b50600160045560056200008c8482620002f1565b5060066200009b8382620002f1565b50505050620003bd565b600080546001600160a01b038381166001600160a01b0319831681178455604051919092169283917f8be0079c531659141344cd1fd0a4f28419497f9722a3daafe3b4186f6b6457e09190a35050565b6003620001038282620002f1565b5050565b634e487b7160e01b600052604160045260246000fd5b600082601f8301126200012f57600080fd5b81516001600160401b03808211156200014c576200014c62000107565b604051601f8301601f19908116603f0116810190828211818310171562000177576200017762000107565b81604052838152602092508660208588010111156200019557600080fd5b600091505b83821015620001b957858201830151818301840152908201906200019a565b6000602085830101528094505050505092915050565b600080600060608486031215620001e557600080fd5b83516001600160401b0380821115620001fd57600080fd5b6200020b878388016200011d565b945060208601519150808211156200022257600080fd5b62000230878388016200011d565b935060408601519150808211156200024757600080fd5b5062000256868287016200011d565b9150509250925092565b600181811c908216806200027557607f821691505b6020821081036200029657634e487b7160e01b600052602260045260246000fd5b50919050565b601f821115620002ec576000816000526020600020601f850160051c81016020861015620002c75750805b601f850160051c820191505b81811015620002e857828155600101620002d3565b5050505b505050565b81516001600160401b038111156200030d576200030d62000107565b62000325816200031e845462000260565b846200029c565b602080601f8311600181146200035d5760008415620003445750858301515b600019600386901b1c1916600185901b178555620002e8565b600085815260208120601f198616915b828110156200038e578886015182559484019460019091019084016200036d565b5085821015620003ad5787850151600019600388901b60f8161c191681555b5050505050600190811b01905550565b61196480620003cd6000396000f3fe6080604052600436106101295760003560e01c8063715018a6116100ab578063b3cea2171161006f578063b3cea21714610316578063bc197c811461032b578063e985e9c514610373578063f23a6e6114610393578063f242432a146103bf578063f2fde38b146103df57600080fd5b8063715018a61461029c5780638da5cb5b146102b157806395d89b41146102d9578063a20438e1146102ee578063a22cb465146102f657600080fd5b806318160ddd116100f257806318160ddd146101f55780632eb2c2d61461020a57806338e21cce1461022a5780633ccfd60b1461025a5780634e1273f41461026f57600080fd5b8062fdd58e1461012e57806301ffc9a71461016157806302fe53051461019157806306fdde03146101b35780630e89341c146101d5575b600080fd5b34801561013a57600080fd5b5061014e61014936600461106d565b6103ff565b6040519081526020015b60405180910390f35b34801561016d57600080fd5b5061018161017c3660046110ad565b610429565b6040519015158152602001610158565b34801561019d57600080fd5b506101b16101ac366004611170565b610479565b005b3480156101bf57600080fd5b506101c861048d565b6040516101589190611207565b3480156101e157600080fd5b506101c86101f036600461121a565b61051b565b34801561020157600080fd5b5060075461014e565b34801561021657600080fd5b506101b16102253660046112e6565b610549565b34801561023657600080fd5b50610181610245366004611390565b60086020526000908152604090205460ff1681565b34801561026657600080fd5b506101b16105b5565b34801561027b57600080fd5b5061028f61028a3660046113ab565b6105f7565b60405161015891906114a7565b3480156102a857600080fd5b506101b16106c4565b3480156102bd57600080fd5b506000546040516001600160a01b039091168152602001610158565b3480156102e557600080fd5b506101c86106d8565b6101b16106e5565b34801561030257600080fd5b506101b16103113660046114ba565b6107d6565b34801561032257600080fd5b5061014e600081565b34801561033757600080fd5b5061035a610346366004611542565b63bc197c8160e01b98975050505050505050565b6040516001600160e01b03199091168152602001610158565b34801561037f57600080fd5b5061018161038e36600461162a565b6107e5565b34801561039f57600080fd5b5061035a6103ae36600461165d565b63f23a6e6160e01b95945050505050565b3480156103cb57600080fd5b506101b16103da36600461165d565b610813565b3480156103eb57600080fd5b506101b16103fa366004611390565b610872565b60008181526001602090815260408083206001600160a01b03861684529091529020545b92915050565b60006001600160e01b03198216636cdb3d1360e11b148061045a57506001600160e01b031982166303a24d0760e21b145b8061042357506301ffc9a760e01b6001600160e01b0319831614610423565b6104816108ad565b61048a816108da565b50565b6005805461049a906116c2565b80601f01602080910402602001604051908101604052809291908181526020018280546104c6906116c2565b80156105135780601f106104e857610100808354040283529160200191610513565b820191906000526020600020905b8154815290600101906020018083116104f657829003601f168201915b505050505081565b60608161052b57610423826108e6565b6040516307ed98ed60e31b815260040160405180910390fd5b919050565b336001600160a01b038616811480159061056a575061056886826107e5565b155b156105a05760405163711bec9160e11b81526001600160a01b038083166004830152871660248201526044015b60405180910390fd5b6105ad868686868661097a565b505050505050565b6105bd6108ad565b600080546040516001600160a01b03909116914780156108fc02929091818181858888f1935050505015801561048a573d6000803e3d6000fd5b606081518351146106285781518351604051635b05999160e01b815260048101929092526024820152604401610597565b6000835167ffffffffffffffff811115610644576106446110d1565b60405190808252806020026020018201604052801561066d578160200160208202803683370190505b50905060005b84518110156106bc57602080820286010151610697906020808402870101516103ff565b8282815181106106a9576106a96116fc565b6020908102919091010152600101610673565b509392505050565b6106cc6108ad565b6106d660006109e1565b565b6006805461049a906116c2565b6106ed610a31565b3361070b5760405163d92e233d60e01b815260040160405180910390fd5b3360009081526008602052604090205460ff161561073c57604051631bbdf5c560e31b815260040160405180910390fd5b341561077e57600080546040516001600160a01b03909116913480156108fc02929091818181858888f1935050505015801561077c573d6000803e3d6000fd5b505b6001600760008282546107919190611712565b9091555050336000818152600860209081526040808320805460ff1916600190811790915581519283019091528282526107cc939291610a5b565b6106d66001600455565b6107e1338383610ab8565b5050565b6001600160a01b03918216600090815260026020908152604080832093909416825291909152205460ff1690565b336001600160a01b0386168114801590610834575061083286826107e5565b155b156108655760405163711bec9160e11b81526001600160a01b03808316600483015287166024820152604401610597565b6105ad8686868686610b4e565b61087a6108ad565b6001600160a01b0381166108a457604051631e4fbdf760e01b815260006004820152602401610597565b61048a816109e1565b6000546001600160a01b031633146106d65760405163118cdaa760e01b8152336004820152602401610597565b60036107e18282611780565b6060600380546108f5906116c2565b80601f0160208091040260200160405190810160405280929190818152602001828054610921906116c2565b801561096e5780601f106109435761010080835404028352916020019161096e565b820191906000526020600020905b81548152906001019060200180831161095157829003601f168201915b50505050509050919050565b6001600160a01b0384166109a457604051632bfa23e760e11b815260006004820152602401610597565b6001600160a01b0385166109cd57604051626a0d4560e21b815260006004820152602401610597565b6109da8585858585610bdc565b5050505050565b600080546001600160a01b038381166001600160a01b0319831681178455604051919092169283917f8be0079c531659141344cd1fd0a4f28419497f9722a3daafe3b4186f6b6457e09190a35050565b600260045403610a5457604051633ee5aeb560e01b815260040160405180910390fd5b6002600455565b6001600160a01b038416610a8557604051632bfa23e760e11b815260006004820152602401610597565b604080516001808252602082018690528183019081526060820185905260808201909252906105ad600087848487610bdc565b6001600160a01b038216610ae15760405162ced3e160e81b815260006004820152602401610597565b6001600160a01b03838116600081815260026020908152604080832094871680845294825291829020805460ff191686151590811790915591519182527f17307eab39ab6107e8899845ad3d59bd9653f200f220920489ca2b5937696c31910160405180910390a3505050565b6001600160a01b038416610b7857604051632bfa23e760e11b815260006004820152602401610597565b6001600160a01b038516610ba157604051626a0d4560e21b815260006004820152602401610597565b60408051600180825260208201869052818301908152606082018590526080820190925290610bd38787848487610bdc565b50505050505050565b610be885858585610c2f565b6001600160a01b038416156109da5782513390600103610c215760208481015190840151610c1a838989858589610e49565b50506105ad565b6105ad818787878787610f6d565b8051825114610c5e5781518151604051635b05999160e01b815260048101929092526024820152604401610597565b3360005b8351811015610d6a576020818102858101820151908501909101516001600160a01b03881615610d195760008281526001602090815260408083206001600160a01b038c16845290915290205481811015610cf0576040516303dee4c560e01b81526001600160a01b038a166004820152602481018290526044810183905260648101849052608401610597565b60008381526001602090815260408083206001600160a01b038d16845290915290209082900390555b6001600160a01b03871615610d605760008281526001602090815260408083206001600160a01b038b16845290915281208054839290610d5a908490611712565b90915550505b5050600101610c62565b508251600103610deb5760208301516000906020840151909150856001600160a01b0316876001600160a01b0316846001600160a01b03167fc3d58168c5ae7397731d063d5bbf3d657854427343f4c083240f7aacaa2d0f628585604051610ddc929190918252602082015260400190565b60405180910390a450506109da565b836001600160a01b0316856001600160a01b0316826001600160a01b03167f4a39dc06d4c0dbc64b70af90fd698a233a518aa5d07e595d983b8c0526c8f7fb8686604051610e3a929190611840565b60405180910390a45050505050565b6001600160a01b0384163b156105ad5760405163f23a6e6160e01b81526001600160a01b0385169063f23a6e6190610e8d908990899088908890889060040161186e565b6020604051808303816000875af1925050508015610ec8575060408051601f3d908101601f19168201909252610ec5918101906118b3565b60015b610f31573d808015610ef6576040519150601f19603f3d011682016040523d82523d6000602084013e610efb565b606091505b508051600003610f2957604051632bfa23e760e11b81526001600160a01b0386166004820152602401610597565b805181602001fd5b6001600160e01b0319811663f23a6e6160e01b14610bd357604051632bfa23e760e11b81526001600160a01b0386166004820152602401610597565b6001600160a01b0384163b156105ad5760405163bc197c8160e01b81526001600160a01b0385169063bc197c8190610fb190899089908890889088906004016118d0565b6020604051808303816000875af1925050508015610fec575060408051601f3d908101601f19168201909252610fe9918101906118b3565b60015b61101a573d808015610ef6576040519150601f19603f3d011682016040523d82523d6000602084013e610efb565b6001600160e01b0319811663bc197c8160e01b14610bd357604051632bfa23e760e11b81526001600160a01b0386166004820152602401610597565b80356001600160a01b038116811461054457600080fd5b6000806040838503121561108057600080fd5b61108983611056565b946020939093013593505050565b6001600160e01b03198116811461048a57600080fd5b6000602082840312156110bf57600080fd5b81356110ca81611097565b9392505050565b634e487b7160e01b600052604160045260246000fd5b604051601f8201601f1916810167ffffffffffffffff81118282101715611110576111106110d1565b604052919050565b600067ffffffffffffffff831115611132576111326110d1565b611145601f8401601f19166020016110e7565b905082815283838301111561115957600080fd5b828260208301376000602084830101529392505050565b60006020828403121561118257600080fd5b813567ffffffffffffffff81111561119957600080fd5b8201601f810184136111aa57600080fd5b6111b984823560208401611118565b949350505050565b6000815180845260005b818110156111e7576020818501810151868301820152016111cb565b506000602082860101526020601f19601f83011685010191505092915050565b6020815260006110ca60208301846111c1565b60006020828403121561122c57600080fd5b5035919050565b600067ffffffffffffffff82111561124d5761124d6110d1565b5060051b60200190565b600082601f83011261126857600080fd5b8135602061127d61127883611233565b6110e7565b8083825260208201915060208460051b87010193508684111561129f57600080fd5b602086015b848110156112bb57803583529183019183016112a4565b509695505050505050565b600082601f8301126112d757600080fd5b6110ca83833560208501611118565b600080600080600060a086880312156112fe57600080fd5b61130786611056565b945061131560208701611056565b9350604086013567ffffffffffffffff8082111561133257600080fd5b61133e89838a01611257565b9450606088013591508082111561135457600080fd5b61136089838a01611257565b9350608088013591508082111561137657600080fd5b50611383888289016112c6565b9150509295509295909350565b6000602082840312156113a257600080fd5b6110ca82611056565b600080604083850312156113be57600080fd5b823567ffffffffffffffff808211156113d657600080fd5b818501915085601f8301126113ea57600080fd5b813560206113fa61127883611233565b82815260059290921b8401810191818101908984111561141957600080fd5b948201945b8386101561143e5761142f86611056565b8252948201949082019061141e565b9650508601359250508082111561145457600080fd5b5061146185828601611257565b9150509250929050565b60008151808452602080850194506020840160005b8381101561149c57815187529582019590820190600101611480565b509495945050505050565b6020815260006110ca602083018461146b565b600080604083850312156114cd57600080fd5b6114d683611056565b9150602083013580151581146114eb57600080fd5b809150509250929050565b60008083601f84011261150857600080fd5b50813567ffffffffffffffff81111561152057600080fd5b6020830191508360208260051b850101111561153b57600080fd5b9250929050565b60008060008060008060008060a0898b03121561155e57600080fd5b61156789611056565b975061157560208a01611056565b9650604089013567ffffffffffffffff8082111561159257600080fd5b61159e8c838d016114f6565b909850965060608b01359150808211156115b757600080fd5b6115c38c838d016114f6565b909650945060808b01359150808211156115dc57600080fd5b818b0191508b601f8301126115f057600080fd5b8135818111156115ff57600080fd5b8c602082850101111561161157600080fd5b6020830194508093505050509295985092959890939650565b6000806040838503121561163d57600080fd5b61164683611056565b915061165460208401611056565b90509250929050565b600080600080600060a0868803121561167557600080fd5b61167e86611056565b945061168c60208701611056565b93506040860135925060608601359150608086013567ffffffffffffffff8111156116b657600080fd5b611383888289016112c6565b600181811c908216806116d657607f821691505b6020821081036116f657634e487b7160e01b600052602260045260246000fd5b50919050565b634e487b7160e01b600052603260045260246000fd5b8082018082111561042357634e487b7160e01b600052601160045260246000fd5b601f82111561177b576000816000526020600020601f850160051c8101602086101561175c5750805b601f850160051c820191505b818110156105ad57828155600101611768565b505050565b815167ffffffffffffffff81111561179a5761179a6110d1565b6117ae816117a884546116c2565b84611733565b602080601f8311600181146117e357600084156117cb5750858301515b600019600386901b1c1916600185901b1785556105ad565b600085815260208120601f198616915b82811015611812578886015182559484019460019091019084016117f3565b50858210156118305787850151600019600388901b60f8161c191681555b5050505050600190811b01905550565b604081526000611853604083018561146b565b8281036020840152611865818561146b565b95945050505050565b6001600160a01b03868116825285166020820152604081018490526060810183905260a0608082018190526000906118a8908301846111c1565b979650505050505050565b6000602082840312156118c557600080fd5b81516110ca81611097565b6001600160a01b0386811682528516602082015260a0604082018190526000906118fc9083018661146b565b828103606084015261190e818661146b565b9050828103608084015261192281856111c1565b9897505050505050505056fea26469706673582212204ba161cec84763d3c8c154913fa223bfa183dfe2a71bfbabaad9d34c552f163264736f6c63430008170033","linkReferences":{}},"methodIdentifiers":{"ID()":"b3cea217","balanceOf(address,uint256)":"00fdd58e","balanceOfBatch(address[],uint256[])":"4e1273f4","claimTestnetBera()":"a20438e1","hasMinted(address)":"38e21cce","isApprovedForAll(address,address)":"e985e9c5","name()":"06fdde03","onERC1155BatchReceived(address,address,uint256[],uint256[],bytes)":"bc197c81","onERC1155Received(address,address,uint256,uint256,bytes)":"f23a6e61","owner()":"8da5cb5b","renounceOwnership()":"715018a6","safeBatchTransferFrom(address,address,uint256[],uint256[],bytes)":"2eb2c2d6","safeTransferFrom(address,address,uint256,uint256,bytes)":"f242432a","setApprovalForAll(address,bool)":"a22cb465","setURI(string)":"02fe5305","supportsInterface(bytes4)":"01ffc9a7","symbol()":"95d89b41","totalSupply()":"18160ddd","transferOwnership(address)":"f2fde38b","uri(uint256)":"0e89341c","withdraw()":"3ccfd60b"},"id":35}